:020000040800F2
:1000000000000220C90500081906000819060008AA
:10001000190600081906000819060008000000006B
:1000200000000000000000000000000019060008A9
:1000300019060008000000001906000871020008F7
:100040001906000819060008190600081906000814
:100050001906000819060008190600081906000804
:1000600019060008190600081906000819060008F4
:1000700019060008190600081906000819060008E4
:1000800019060008190600081906000800000000FB
:100090000000000000000000000000001906000839
:1000A00019060008190600081906000819060008B4
:1000B00019060008190600081906000819060008A4
:1000C0001906000819060008190600081906000894
:1000D00019060008190600081906000800000000AB
:1000E000190600081906000819060008000000009B
:1000F00000000000000000000000000019060008D9
:10010000000000001906000819060008190600087A
:1001100000000000000000000000000000000000DF
:100120001906000819060008190600081906000833
:100130001906000800000000000000000000000098
:100140000000000000000000000000001906000888
:100150001906000819060008190600081906000803
:100160001906000819060008000000000000000041
:10017000000000000000000000000000000000007F
:100180000000000019060008000000000000000048
:08019000190600081906000819
:1001980010B5054C237833B9044B13B10448AFF3B9
:1001A80000800123237010BD04000020000000001F
:1001B8006406000808B5034B1BB103490348AFF3B5
:1001C800008008BD00000000080000206406000848
:1001D80080B483B000AF03463960FB7197F90730EC
:1001E800002B0ADB3B68DAB20C4997F90730120199
:1001F800D2B20B4483F800230AE03B68DAB208491C
:10020800FB7903F00F03043B1201D2B20B441A76B8
:1002180000BF0C37BD465DF8047B704700E100E085
:1002280000ED00E080B582B000AF78607B68013BEC
:10023800B3F1807F01D301230FE00A4A7B68013BB9
:1002480053600F214FF0FF30FFF7C2FF054B00222C
:100258009A60044B07221A60002318460837BD46E7
:1002680080BD00BF10E000E080B400AF044B1B6805
:100278000133034A136000BFBD465DF8047B704735
:100288002000002080B485B000AF7860084B1B6860
:10029800FB6000BF064B1A68FB68D21A7B689A425B
:1002A800F8D900BF00BF1437BD465DF8047B70471E
:1002B8002000002080B582B000AF00F0EFF86F4B4F
:1002C8001B686E4A43F48033136000BF6B4B1B6896
:1002D80003F40033002BF9D0684B1B6C674A43F0DA
:1002E80080531364664B1B68654A43F440431360AC
:1002F800644B1B68634A43F4E06343F005031360EF
:100308005E4B9B685D4A23F0100393605B4B9B68D0
:100318005A4A43F480539360584B5B68574A43F4F6
:10032800906343F001035360544B5B68534A43F4B2
:1003380080035360514B1B68504A43F0807313602D
:1003480000BF4E4B1B6803F00073002BF9D04B4BDA
:100358009B684A4A43F00203936000BF474B9B687F
:1003680003F00803002BF9D000F0AAF8464B1B68ED
:10037800464AA2FB03239B091846FFF753FF3F4B4E
:100388001B6C3E4A43F0020313643C4B1B6B3B4A15
:1003980043F001031363394B1B6B384A43F00203E4
:1003A80013633B4B1B6823F44063394A43F480636F
:1003B8001360384B1B6823F44073364A43F40073C8
:1003C8001360344B9B68334A43F400739360314B9A
:1003D8001B6A304A43F4003313622F4B40F2BF329A
:1003E8009A622D4B4FF47A72DA622B4B3A225A6397
:1003F800294B9B69284A23F003039361264B9B6989
:10040800254A43F060039361234B9B69224A43F0DA
:1004180008039361204B1B681F4A43F08003136055
:100428001D4B1B6A1C4A43F0010313621A4B00223E
:100438005A62194B1B68184A43F001031360164BA4
:100448003A225A633A237B607B6801337B60104B06
:1004580020229A617B68B3F57A7F02DA7B68002BE9
:1004680001D13A237B600C4A7B6853630A20FFF76B
:1004780009FF074B4FF400129A61E5E70038024084
:1004880000700040003C024000000020D34D621084
:1004980000000240000402400004004080B400AFA5
:1004A800064BD3F88830054A43F47003C2F8883005
:1004B80000BFBD465DF8047B704700BF00ED00E05B
:1004C80080B487B000AF00233B6100237B61022327
:1004D800FB600023BB6002237B60344B9B6803F006
:1004E8000C033B613B69082B11D03B69082B44D8AE
:1004F8003B69002B03D03B69042B04D03DE02C4B17
:100508002C4A1A603DE02A4B2B4A1A6039E0274BE7
:100518005B689B0D03F00103BB60244B5B6803F031
:100528003F037B60BB68002B0CD0234A7B68B2FB7F
:10053800F3F31E4A52689209C2F3080202FB03F35E
:100548007B610BE01B4A7B68B2FBF3F3174A5268E6
:100558009209C2F3080202FB03F37B61134B5B6849
:100568001B0C03F0030301335B00FB607A69FB6833
:10057800B2FBF3F30E4A136003E00D4B0D4A1A6009
:1005880000BF0A4B9B681B0903F00F030B4AD35C9F
:100598003B61074B1A683B6922FA03F3044A13606C
:1005A80000BF1C37BD465DF8047B70470038024029
:1005B800000000200024F40000127A007C060008E5
:1005C800DFF834D0FFF76AFF0C480D490D4A0023C5
:1005D80002E0D458C4500433C4188C42F9D30A4AF0
:1005E8000A4C002301E013600432A242FBD300F05E
:1005F80011F8FFF75FFE704700000220000000209E
:1006080004000020940600080400002024000020B4
:10061800FEE7000070B50D4D0D4C641BA4100026BC
:10062800A64209D10B4D0C4C00F018F8641BA4101D
:100638000026A64205D170BD55F8043B98470136FF
:10064800EEE755F8043B98470136F2E78C060008B8
:100658008C0600088C06000890060008F8B500BF54
:10066800F8BC08BC9E467047F8B500BFF8BC08BC8B
:040678009E467047E3
:10067C000000000000000000010203040607080946
:04068C00BD010008A4
:0406900099010008C4
:0406940000A24A0472
:04000005080005C921
:00000001FF
